{
  "contractName": "FactoryProyectoInversion",
  "abi": [
    {
      "constant": true,
      "inputs": [
        {
          "name": "",
          "type": "uint256"
        }
      ],
      "name": "contratosDeployados",
      "outputs": [
        {
          "name": "",
          "type": "address"
        }
      ],
      "payable": false,
      "stateMutability": "view",
      "type": "function"
    },
    {
      "constant": true,
      "inputs": [],
      "name": "owner",
      "outputs": [
        {
          "name": "",
          "type": "address"
        }
      ],
      "payable": false,
      "stateMutability": "view",
      "type": "function"
    },
    {
      "constant": false,
      "inputs": [
        {
          "name": "newOwner",
          "type": "address"
        }
      ],
      "name": "transferOwnership",
      "outputs": [],
      "payable": false,
      "stateMutability": "nonpayable",
      "type": "function"
    },
    {
      "anonymous": false,
      "inputs": [
        {
          "indexed": true,
          "name": "_contract_address",
          "type": "address"
        },
        {
          "indexed": true,
          "name": "_owner",
          "type": "address"
        }
      ],
      "name": "ContratoCreadoEvent",
      "type": "event"
    },
    {
      "anonymous": false,
      "inputs": [
        {
          "indexed": true,
          "name": "previousOwner",
          "type": "address"
        },
        {
          "indexed": true,
          "name": "newOwner",
          "type": "address"
        }
      ],
      "name": "OwnershipTransferred",
      "type": "event"
    },
    {
      "constant": false,
      "inputs": [
        {
          "name": "_contribucionMinima",
          "type": "uint256"
        },
        {
          "name": "_total_requerido",
          "type": "uint256"
        }
      ],
      "name": "crearProyectoInversion",
      "outputs": [],
      "payable": false,
      "stateMutability": "nonpayable",
      "type": "function"
    },
    {
      "constant": true,
      "inputs": [],
      "name": "obtenerContratosPI",
      "outputs": [
        {
          "name": "",
          "type": "address[]"
        }
      ],
      "payable": false,
      "stateMutability": "view",
      "type": "function"
    },
    {
      "constant": true,
      "inputs": [],
      "name": "getProyectoByOwner",
      "outputs": [
        {
          "name": "",
          "type": "address[]"
        }
      ],
      "payable": false,
      "stateMutability": "view",
      "type": "function"
    }
  ],
  "bytecode": "0x608060405260008054600160a060020a0319163317905561167a806100256000396000f3fe6080604052600436106100775763ffffffff7c01000000000000000000000000000000000000000000000000000000006000350416631166f1b8811461007c5780631fe8c078146100e1578063251af9051461012757806385044458146101595780638da5cb5b1461016e578063f2fde38b14610183575b600080fd5b34801561008857600080fd5b506100916101b6565b60408051602080825283518183015283519192839290830191858101910280838360005b838110156100cd5781810151838201526020016100b5565b505050509050019250505060405180910390f35b3480156100ed57600080fd5b5061010b6004803603602081101561010457600080fd5b5035610218565b60408051600160a060020a039092168252519081900360200190f35b34801561013357600080fd5b506101576004803603604081101561014a57600080fd5b5080359060200135610240565b005b34801561016557600080fd5b50610091610340565b34801561017a57600080fd5b5061010b6103a9565b34801561018f57600080fd5b50610157600480360360208110156101a657600080fd5b5035600160a060020a03166103b8565b6060600180548060200260200160405190810160405280929190818152602001828054801561020e57602002820191906000526020600020905b8154600160a060020a031681526001909101906020018083116101f0575b5050505050905090565b600180548290811061022657fe5b600091825260209091200154600160a060020a0316905081565b600082823361024d610545565b9283526020830191909152600160a060020a03166040808301919091525190819003606001906000f080158015610288573d6000803e3d6000fd5b506001805480820182557fb10e2d527612073b26eecdfd717e6a320cf44b4afac2b0732d9fcbe2b7fa0cf6018054600160a060020a0380851673ffffffffffffffffffffffffffffffffffffffff199283168117909355336000908152600260209081526040808320805497880181558352908220909501805490931684179092558154935194955085949316927fd4bc185c3b7591fcf54b09029d8940210a059355aa20e1b2cfa016e18fcd7c2d9190a350505050565b3360009081526002602090815260409182902080548351818402810184019094528084526060939283018282801561020e57602002820191906000526020600020908154600160a060020a031681526001909101906020018083116101f0575050505050905090565b600054600160a060020a031681565b60408051606081018252603781527f303033202d20536f6c6f20656c2062656e65666963696172696f20707565646560208201527f207472616e73666572697220656c2070726f796563746f000000000000000000918101919091526000548190600160a060020a031633146104c6576040517f08c379a00000000000000000000000000000000000000000000000000000000081526004018080602001828103825283818151815260200191508051906020019080838360005b8381101561048b578181015183820152602001610473565b50505050905090810190601f1680156104b85780820380516001836020036101000a031916815260200191505b509250505060405180910390fd5b50600160a060020a03821615156104dc57600080fd5b60008054604051600160a060020a03808616939216917f8be0079c531659141344cd1fd0a4f28419497f9722a3daafe3b4186f6b6457e091a3506000805473ffffffffffffffffffffffffffffffffffffffff1916600160a060020a0392909216919091179055565b6040516110f9806105568339019056fe608060405234801561001057600080fd5b506040516060806110f98339810180604052606081101561003057600080fd5b508051602082015160409092015160008054600160a060020a03909216600160a060020a0319928316331790921691909117815560039190915560045560025561107a8061007f6000396000f3fe6080604052600436106100b85763ffffffff7c01000000000000000000000000000000000000000000000000000000006000350416628fe49d81146100bd578063129f76a6146100c7578063285694671461010e5780633aa6d2081461013857806341e2a54c1461015557806370764381146101f95780638da5cb5b1461020e578063a00ed4781461023f578063b0a688be14610269578063b6ca07a91461027e578063f2fde38b14610293578063fd91c7d4146102c6575b600080fd5b6100c561039a565b005b3480156100d357600080fd5b506100fa600480360360208110156100ea57600080fd5b5035600160a060020a031661049e565b604080519115158252519081900360200190f35b34801561011a57600080fd5b506100c56004803603602081101561013157600080fd5b50356104b3565b6100c56004803603602081101561014e57600080fd5b5035610706565b34801561016157600080fd5b506101e76004803603606081101561017857600080fd5b813591600160a060020a03602082013516918101906060810160408201356401000000008111156101a857600080fd5b8201836020820111156101ba57600080fd5b803590602001918460018302840111640100000000831117156101dc57600080fd5b509092509050610af8565b60408051918252519081900360200190f35b34801561020557600080fd5b506101e7610cc1565b34801561021a57600080fd5b50610223610cc7565b60408051600160a060020a039092168252519081900360200190f35b34801561024b57600080fd5b506100c56004803603602081101561026257600080fd5b5035610cd6565b34801561027557600080fd5b506101e7610d98565b34801561028a57600080fd5b506101e7610d9e565b34801561029f57600080fd5b506100c5600480360360208110156102b657600080fd5b5035600160a060020a0316610da4565b3480156102d257600080fd5b506102f0600480360360208110156102e957600080fd5b5035610ede565b604051808681526020018581526020018415151515815260200183600160a060020a0316600160a060020a0316815260200180602001828103825283818151815260200191508051906020019080838360005b8381101561035b578181015183820152602001610343565b50505050905090810190601f1680156103885780820380516001836020036101000a031916815260200191505b50965050505050505060405180910390f35b60035434101561041a576040805160e560020a62461bcd02815260206004820152603960248201527f313031202d20496e74656e746120696e766572746972206d656e6f732071756560448201527f206c6120636f6e74726962756369c3b36e206dc3ad6e696d6100000000000000606482015290519081900360840190fd5b3360009081526005602052604090205460ff16151561043d576004805460010190555b336000908152600560209081526040808320805460ff19166001179055915460045483519081529251600160a060020a0391909116927fa14749d6af14c642f3d3f05112fd0b480f086739744f9755b949f54547c674e392908290030190a2565b60056020526000908152604090205460ff1681565b3360009081526005602052604090205460ff161515610542576040805160e560020a62461bcd02815260206004820152602760248201527f323030202d205573746564206e6f20657320696e766572736f7220706172612060448201527f6170726f62617200000000000000000000000000000000000000000000000000606482015290519081900360840190fd5b600154811061059b576040805160e560020a62461bcd02815260206004820152601d60248201527f32303120656c20494420696e6772657361646f206e6f20657869737465000000604482015290519081900360640190fd5b60018054829081106105a957fe5b600091825260208083203384526004600590930201919091019052604090205460ff1615610647576040805160e560020a62461bcd02815260206004820152602360248201527f323032202d20557374656420796120766f74c3b320657374612070726f70756560448201527f7374610000000000000000000000000000000000000000000000000000000000606482015290519081900360840190fd5b6001808281548110151561065757fe5b60009182526020808320338452600592909202909101600401905260409020805460ff1916911515919091179055600180548290811061069357fe5b600091825260209091206001600590920201810180548201905580547fe554a5d9dff69cab0296b96b7729d1d703bcdb4f4aba5737c6ac5fc309759dcb9190839081106106dc57fe5b9060005260206000209060050201600101546040518082815260200191505060405180910390a150565b60408051606081018252602281527f30303032202d205573746564206e6f206573206c652062656e6566696369617260208201527f696f000000000000000000000000000000000000000000000000000000000000918101919091526000548190600160a060020a031633146107fd5760405160e560020a62461bcd0281526004018080602001828103825283818151815260200191508051906020019080838360005b838110156107c25781810151838201526020016107aa565b50505050905090810190601f1680156107ef5780820380516001836020036101000a031916815260200191505b509250505060405180910390fd5b50600154821061087d576040805160e560020a62461bcd02815260206004820152602a60248201527f33303120656c20494420696e6772657361646f206e6f2065786973746520706160448201527f726120656c207061676f00000000000000000000000000000000000000000000606482015290519081900360840190fd5b6004546000106108d7576040805160e560020a62461bcd02815260206004820152601760248201527f333032202d204e6f2068617920696e766572736f726573000000000000000000604482015290519081900360640190fd5b60018054839081106108e557fe5b600091825260209091206002600590920201015460ff1615610951576040805160e560020a62461bcd02815260206004820152601960248201527f333033202d20536f6c6963697475642079612070616761646100000000000000604482015290519081900360640190fd5b6004546002900460018381548110151561096757fe5b90600052602060002090600502016001015411151561098557600080fd5b600180548390811061099357fe5b906000526020600020906005020160020160019054906101000a9004600160a060020a0316600160a060020a03166108fc6001848154811015156109d357fe5b600091825260208220600590910201546040518115909302929091818181858888f19350505050158015610a0b573d6000803e3d6000fd5b5060018083815481101515610a1c57fe5b60009182526020909120600590910201600201805460ff19169115159190911790556001805483908110610a4c57fe5b906000526020600020906005020160020160019054906101000a9004600160a060020a0316600160a060020a03167fc079ffc99421198b5274e704081294acfc5f89b58a54f6941a8de30bc8e45f07600184815481101515610aaa57fe5b906000526020600020906005020160000154600185815481101515610acb57fe5b60009182526020918290206001600590920201015460408051938452918301528051918290030190a25050565b60408051606081018252603381527f30303031202d20536f6c6f20656c2062656e65666963696172696f207075656460208201527f6520637265617220736f6c69636974756465730000000000000000000000000091810191909152600080549091908190600160a060020a03163314610bb75760405160e560020a62461bcd028152600401808060200182810382528381815181526020019150805190602001908083836000838110156107c25781810151838201526020016107aa565b50600060018060a0604051908101604052808a81526020016000815260200160001515815260200189600160a060020a0316815260200188888080601f0160208091040260200160405190810160405280939291908181526020018383808284376000920182905250939094525050835460018181018087559583526020928390208551600590930201918255828501519082015560408401516002820180546060870151600160a060020a03166101000274ffffffffffffffffffffffffffffffffffffffff001993151560ff19909216919091179290921691909117905560808401518051919350610cb2926003850192910190610fb3565b50505003979650505050505050565b60045481565b600054600160a060020a031681565b60408051606081018252602a81527f34303031202d20536f6c6f20656c20656d707265736172696f206c612070756560208201527f64652063616d6269617200000000000000000000000000000000000000000000918101919091526000548190600160a060020a03163314610d915760405160e560020a62461bcd028152600401808060200182810382528381815181526020019150805190602001908083836000838110156107c25781810151838201526020016107aa565b5050600355565b60025481565b60035481565b60408051606081018252603781527f303033202d20536f6c6f20656c2062656e65666963696172696f20707565646560208201527f207472616e73666572697220656c2070726f796563746f000000000000000000918101919091526000548190600160a060020a03163314610e5f5760405160e560020a62461bcd028152600401808060200182810382528381815181526020019150805190602001908083836000838110156107c25781810151838201526020016107aa565b50600160a060020a0382161515610e7557600080fd5b60008054604051600160a060020a03808616939216917f8be0079c531659141344cd1fd0a4f28419497f9722a3daafe3b4186f6b6457e091a3506000805473ffffffffffffffffffffffffffffffffffffffff1916600160a060020a0392909216919091179055565b6001805482908110610eec57fe5b6000918252602091829020600591909102018054600180830154600280850154600386018054604080516101009783161588026000190190921694909404601f81018a90048a0282018a01909452838152959850929660ff82169694909104600160a060020a031694929190830182828015610fa95780601f10610f7e57610100808354040283529160200191610fa9565b820191906000526020600020905b815481529060010190602001808311610f8c57829003601f168201915b5050505050905085565b828054600181600116156101000203166002900490600052602060002090601f016020900481019282601f10610ff457805160ff1916838001178555611021565b82800160010185558215611021579182015b82811115611021578251825591602001919060010190611006565b5061102d929150611031565b5090565b61104b91905b8082111561102d5760008155600101611037565b9056fea165627a7a72305820a2127a59afb4a35824f9cc73f36c0c84a3749fd8b35987db33725bbc7a9bc42f0029a165627a7a72305820c05646b8171a0b88ce372a404e8fd356aecef5d816d2aa19c4d9ef37fb113f390029",
  "source": "pragma solidity ^0.5.0;\nimport \"./Ownable.sol\";\n\ncontract FactoryProyectoInversion is Ownable{\n    address[] public contratosDeployados;\n    mapping(address => address[]) private proyectosByOwner;\n\n    event ContratoCreadoEvent( address indexed _contract_address,\n                               address indexed _owner);\n\n    function crearProyectoInversion(uint _contribucionMinima, uint _total_requerido) public{\n        ProyectoInversion pi = new ProyectoInversion(_contribucionMinima\n                                                    , _total_requerido\n                                                    , msg.sender);\n        address piAddress = address(pi);\n        contratosDeployados.push(piAddress);\n        proyectosByOwner[msg.sender].push(piAddress);\n        emit ContratoCreadoEvent(piAddress, owner);\n    }\n\n    function obtenerContratosPI() public view returns (address[] memory) {\n        return contratosDeployados;\n    }\n\n    function getProyectoByOwner() public view returns(address[] memory){\n        return proyectosByOwner[msg.sender];\n    }\n}\n\n/**\n * @title ProyectoInversion\n * @dev El beneficiario de la inversión da alta un nuevo proyecto en la plataforma\n * de Crowfounding y los inversores aportan dinero en caso que les guste el proyecto.\n * El dinero no se libera al beneficiario, sino que queda almacenado en el contrato, \n * luego el beneficiario crea Solicitudes de Pago para pagarle a algún proveedor \n * necesario para ejecutar el proyectos y los inversores votan para liberar o no el\n * pago. \n */\ncontract ProyectoInversion is Ownable{\n    struct SolicitudPago {\n        uint monto;\n        uint votosFavor;\n        bool completo;  \n        address payable proveedor;\n        string descripcion;        \n        mapping(address => bool) votantes;\n    }\n    SolicitudPago[] public solicitudes;\n    uint public totalRequerido;\n    uint public contribucionMinima;\n    uint public cantidadInversores;\n    mapping(address => bool) public inversores;\n    \n    event InvertirEvent(address indexed _owner, uint _inversor_number);\n    event AprobarSolicitudEvent(uint _votos_favor);\n    event PagarEvent(address indexed _proveedor, uint _monto, uint _votos_favor);\n\n    constructor(uint _contribucionMinima, uint _total_requerido, address payable _empresario) public {\n        owner = _empresario;\n        contribucionMinima = _contribucionMinima;\n        cantidadInversores = 0;\n        totalRequerido = _total_requerido;\n    }\n   \n   /**\n   * @dev Setea la contribución mínima del proyecto\n   */\n    function setContribucionMinima(uint _contribucionMinima) public onlyOwner(\"4001 - Solo el empresario la puede cambiar\") {\n        contribucionMinima = _contribucionMinima;\n    }\n\n   /**\n   * @dev Le permite a un suario invertir en el proyecto. La convierte en inversora.\n   */\n    function invertir() external payable {\n        require(msg.value >= contribucionMinima, \"101 - Intenta invertir menos que la contribución mínima\");\n        if (!inversores[msg.sender]){\n            cantidadInversores++; \n        }\n        inversores[msg.sender] = true;\n        emit InvertirEvent(owner, cantidadInversores);\n    }\n\n    /**\n    * @dev El beneficiario de la inversión crea una solicitud de Pago\n    * @param _monto Dirección del proveedor\n    * @param _proveedor Dirección del proveedor\n    * @return {\n        \"_id\": \"ID de la solcitud de depósito\"\n      }\n    */\n    function crearSolicitudPago(uint _monto, address payable _proveedor, string calldata _descripcion) external \n       onlyOwner(\"0001 - Solo el beneficiario puede crear solicitudes\") returns (uint){  \n        //El método push devuevle la nueva longitud del array\n       uint id = solicitudes.push(SolicitudPago(_monto, 0, false, _proveedor, _descripcion)) - 1;\n       return id;\n    }\n\n    /**\n    * @dev Cualquiera de los inversores solicita la aprobación del pago\n    */\n    function aprobarSolicitudPago(uint _idSolicitud) external {\n        require(inversores[msg.sender], \"200 - Usted no es inversor para aprobar\");\n        require(_idSolicitud < solicitudes.length, \"201 el ID ingresado no existe\");\n        require(!solicitudes[_idSolicitud].votantes[msg.sender], \"202 - Usted ya votó esta propuesta\");\n        solicitudes[_idSolicitud].votantes[msg.sender] = true;\n        solicitudes[_idSolicitud].votosFavor++;\n        emit AprobarSolicitudEvent(solicitudes[_idSolicitud].votosFavor);\n    }\n\n    /**\n     * @dev Una vez que se han obtenido todas las aprobaciones, el beneficiario\n     * de la inversión \n     */\n    function pagar(uint _idSolicitud) external payable onlyOwner(\"0002 - Usted no es le beneficiario\"){\n        require(_idSolicitud < solicitudes.length, \"301 el ID ingresado no existe para el pago\");\n        require(cantidadInversores > 0, \"302 - No hay inversores\");\n        require(!solicitudes[_idSolicitud].completo, \"303 - Solicitud ya pagada\");\n        require(solicitudes[_idSolicitud].votosFavor > (cantidadInversores / 2));\n        solicitudes[_idSolicitud].proveedor.transfer(solicitudes[_idSolicitud].monto);\n        solicitudes[_idSolicitud].completo = true;\n        emit PagarEvent( solicitudes[_idSolicitud].proveedor\n                       , solicitudes[_idSolicitud].monto\n                       , solicitudes[_idSolicitud].votosFavor);\n    }\n\n}",
  "sourcePath": "/home/diego/src/github/dmerniestic1987/crowfounding-next/contracts/FactoryProyectoInversion.sol",
  "compiler": {
    "name": "solc",
    "version": "0.5.0+commit.1d4f565a.Emscripten.clang"
  },
  "schemaVersion": "3.0.0",
  "updatedAt": "2019-02-08T14:50:25.950Z",
  "devdoc": {
    "methods": {
      "transferOwnership(address)": {
        "details": "Allows the current owner to transfer control of the contract to a newOwner.",
        "params": {
          "newOwner": "The address to transfer ownership to."
        }
      }
    }
  },
  "userdoc": {
    "methods": {}
  }
}